{"contracts/voting.sol":{"Voting":{"abi":[{"inputs":[],"stateMutability":"nonpayable","type":"constructor"},{"anonymous":false,"inputs":[{"indexed":false,"internalType":"bool","name":"validVote","type":"bool"},{"indexed":false,"internalType":"address","name":"sender","type":"address"},{"indexed":false,"internalType":"uint256","name":"candidateWinner","type":"uint256"}],"name":"Results","type":"event"},{"anonymous":false,"inputs":[{"indexed":false,"internalType":"bool","name":"validVote","type":"bool"},{"indexed":false,"internalType":"address","name":"sender","type":"address"},{"indexed":false,"internalType":"uint256","name":"candidateNum","type":"uint256"}],"name":"VoteValid","type":"event"},{"inputs":[{"internalType":"uint256","name":"","type":"uint256"}],"name":"canditateArray","outputs":[{"internalType":"uint256","name":"","type":"uint256"}],"stateMutability":"view","type":"function"},{"inputs":[],"name":"getWinner","outputs":[{"internalType":"uint256","name":"","type":"uint256"}],"stateMutability":"view","type":"function"},{"inputs":[],"name":"isTimeValid","outputs":[{"internalType":"bool","name":"","type":"bool"}],"stateMutability":"view","type":"function"},{"inputs":[],"name":"timeEnd","outputs":[{"internalType":"uint256","name":"","type":"uint256"}],"stateMutability":"view","type":"function"},{"inputs":[],"name":"timeStart","outputs":[{"internalType":"uint256","name":"","type":"uint256"}],"stateMutability":"view","type":"function"},{"inputs":[{"internalType":"uint256","name":"candidateNum","type":"uint256"}],"name":"vote","outputs":[{"internalType":"bool","name":"","type":"bool"}],"stateMutability":"nonpayable","type":"function"}],"evm":{"bytecode":{"linkReferences":{},"object":"60806040526040518060800160405280600060ff168152602001600060ff168152602001600060ff168152602001600060ff16815250600090600461004592919061006e565b5034801561005257600080fd5b506364a85efc600481905550636480dae46005819055506100d0565b82600481019282156100a2579160200282015b828111156100a1578251829060ff16905591602001919060010190610081565b5b5090506100af91906100b3565b5090565b5b808211156100cc5760008160009055506001016100b4565b5090565b61057e806100df6000396000f3fe608060405234801561001057600080fd5b50600436106100625760003560e01c80630121b93f146100675780633f4761a5146100975780638e7ea5b2146100c7578063fd2723fd146100e5578063fd74d29414610103578063fda263e814610121575b600080fd5b610081600480360381019061007c91906103e1565b61013f565b60405161008e9190610429565b60405180910390f35b6100b160048036038101906100ac91906103e1565b6101c0565b6040516100be9190610453565b60405180910390f35b6100cf6101db565b6040516100dc9190610453565b60405180910390f35b6100ed6102a7565b6040516100fa9190610429565b60405180910390f35b61010b6102e0565b6040516101189190610453565b60405180910390f35b6101296102e6565b6040516101369190610453565b60405180910390f35b60006101496102a7565b156101b65760006001600084600481106101665761016561046e565b5b015461017291906104cc565b905080600084600481106101895761018861046e565b5b01819055506101ac600084600481106101a5576101a461046e565b5b01546102ec565b60019150506101bb565b600090505b919050565b600081600481106101d057600080fd5b016000915090505481565b6000806002905060005b600381101561029f5761020c600082600481106102055761020461046e565b5b01546102ec565b610236600060018361021e91906104cc565b6004811061022f5761022e61046e565b5b01546102ec565b600060018261024591906104cc565b600481106102565761025561046e565b5b01546000826004811061026c5761026b61046e565b5b0154111561027c5780915061028c565b60018161028991906104cc565b91505b808061029790610500565b9150506101e5565b508091505090565b6000804290506102b6816102ec565b600454421180156102c8575060055442105b156102d75760019150506102dd565b60019150505b90565b60045481565b60055481565b610382816040516024016103009190610453565b6040516020818303038152906040527ff82c50f1000000000000000000000000000000000000000000000000000000007bffffffffffffffffffffffffffffffffffffffffffffffffffffffff19166020820180517bffffffffffffffffffffffffffffffffffffffffffffffffffffffff8381831617835250505050610385565b50565b60006a636f6e736f6c652e6c6f679050600080835160208501845afa505050565b600080fd5b6000819050919050565b6103be816103ab565b81146103c957600080fd5b50565b6000813590506103db816103b5565b92915050565b6000602082840312156103f7576103f66103a6565b5b6000610405848285016103cc565b91505092915050565b60008115159050919050565b6104238161040e565b82525050565b600060208201905061043e600083018461041a565b92915050565b61044d816103ab565b82525050565b60006020820190506104686000830184610444565b92915050565b7f4e487b7100000000000000000000000000000000000000000000000000000000600052603260045260246000fd5b7f4e487b7100000000000000000000000000000000000000000000000000000000600052601160045260246000fd5b60006104d7826103ab565b91506104e2836103ab565b92508282019050808211156104fa576104f961049d565b5b92915050565b600061050b826103ab565b91507fffffffffffffffffffffffffffffffffffffffffffffffffffffffffffffffff820361053d5761053c61049d565b5b60018201905091905056fea2646970667358221220b874f617009fab55cfabf39d510d8e5b25b2620c6463918195bace76ae096fb864736f6c63430008120033","opcodes":"PUSH1 0x80 PUSH1 0x40 MSTORE PUSH1 0x40 MLOAD DUP1 PUSH1 0x80 ADD PUSH1 0x40 MSTORE DUP1 PUSH1 0x0 PUSH1 0xFF AND DUP2 MSTORE PUSH1 0x20 ADD PUSH1 0x0 PUSH1 0xFF AND DUP2 MSTORE PUSH1 0x20 ADD PUSH1 0x0 PUSH1 0xFF AND DUP2 MSTORE PUSH1 0x20 ADD PUSH1 0x0 PUSH1 0xFF AND DUP2 MSTORE POP PUSH1 0x0 SWAP1 PUSH1 0x4 PUSH2 0x45 SWAP3 SWAP2 SWAP1 PUSH2 0x6E JUMP JUMPDEST POP CALLVALUE DUP1 ISZERO PUSH2 0x52 JUMPI PUSH1 0x0 DUP1 REVERT JUMPDEST POP PUSH4 0x64A85EFC PUSH1 0x4 DUP2 SWAP1 SSTORE POP PUSH4 0x6480DAE4 PUSH1 0x5 DUP2 SWAP1 SSTORE POP PUSH2 0xD0 JUMP JUMPDEST DUP3 PUSH1 0x4 DUP2 ADD SWAP3 DUP3 ISZERO PUSH2 0xA2 JUMPI SWAP2 PUSH1 0x20 MUL DUP3 ADD JUMPDEST DUP3 DUP2 GT ISZERO PUSH2 0xA1 JUMPI DUP3 MLOAD DUP3 SWAP1 PUSH1 0xFF AND SWAP1 SSTORE SWAP2 PUSH1 0x20 ADD SWAP2 SWAP1 PUSH1 0x1 ADD SWAP1 PUSH2 0x81 JUMP JUMPDEST JUMPDEST POP SWAP1 POP PUSH2 0xAF SWAP2 SWAP1 PUSH2 0xB3 JUMP JUMPDEST POP SWAP1 JUMP JUMPDEST JUMPDEST DUP1 DUP3 GT ISZERO PUSH2 0xCC JUMPI PUSH1 0x0 DUP2 PUSH1 0x0 SWAP1 SSTORE POP PUSH1 0x1 ADD PUSH2 0xB4 JUMP JUMPDEST POP SWAP1 JUMP JUMPDEST PUSH2 0x57E DUP1 PUSH2 0xDF PUSH1 0x0 CODECOPY PUSH1 0x0 RETURN INVALID PUSH1 0x80 PUSH1 0x40 MSTORE CALLVALUE DUP1 ISZERO PUSH2 0x10 JUMPI PUSH1 0x0 DUP1 REVERT JUMPDEST POP PUSH1 0x4 CALLDATASIZE LT PUSH2 0x62 JUMPI PUSH1 0x0 CALLDATALOAD PUSH1 0xE0 SHR DUP1 PUSH4 0x121B93F EQ PUSH2 0x67 JUMPI DUP1 PUSH4 0x3F4761A5 EQ PUSH2 0x97 JUMPI DUP1 PUSH4 0x8E7EA5B2 EQ PUSH2 0xC7 JUMPI DUP1 PUSH4 0xFD2723FD EQ PUSH2 0xE5 JUMPI DUP1 PUSH4 0xFD74D294 EQ PUSH2 0x103 JUMPI DUP1 PUSH4 0xFDA263E8 EQ PUSH2 0x121 JUMPI JUMPDEST PUSH1 0x0 DUP1 REVERT JUMPDEST PUSH2 0x81 PUSH1 0x4 DUP1 CALLDATASIZE SUB DUP2 ADD SWAP1 PUSH2 0x7C SWAP2 SWAP1 PUSH2 0x3E1 JUMP JUMPDEST PUSH2 0x13F JUMP JUMPDEST PUSH1 0x40 MLOAD PUSH2 0x8E SWAP2 SWAP1 PUSH2 0x429 JUMP JUMPDEST PUSH1 0x40 MLOAD DUP1 SWAP2 SUB SWAP1 RETURN JUMPDEST PUSH2 0xB1 PUSH1 0x4 DUP1 CALLDATASIZE SUB DUP2 ADD SWAP1 PUSH2 0xAC SWAP2 SWAP1 PUSH2 0x3E1 JUMP JUMPDEST PUSH2 0x1C0 JUMP JUMPDEST PUSH1 0x40 MLOAD PUSH2 0xBE SWAP2 SWAP1 PUSH2 0x453 JUMP JUMPDEST PUSH1 0x40 MLOAD DUP1 SWAP2 SUB SWAP1 RETURN JUMPDEST PUSH2 0xCF PUSH2 0x1DB JUMP JUMPDEST PUSH1 0x40 MLOAD PUSH2 0xDC SWAP2 SWAP1 PUSH2 0x453 JUMP JUMPDEST PUSH1 0x40 MLOAD DUP1 SWAP2 SUB SWAP1 RETURN JUMPDEST PUSH2 0xED PUSH2 0x2A7 JUMP JUMPDEST PUSH1 0x40 MLOAD PUSH2 0xFA SWAP2 SWAP1 PUSH2 0x429 JUMP JUMPDEST PUSH1 0x40 MLOAD DUP1 SWAP2 SUB SWAP1 RETURN JUMPDEST PUSH2 0x10B PUSH2 0x2E0 JUMP JUMPDEST PUSH1 0x40 MLOAD PUSH2 0x118 SWAP2 SWAP1 PUSH2 0x453 JUMP JUMPDEST PUSH1 0x40 MLOAD DUP1 SWAP2 SUB SWAP1 RETURN JUMPDEST PUSH2 0x129 PUSH2 0x2E6 JUMP JUMPDEST PUSH1 0x40 MLOAD PUSH2 0x136 SWAP2 SWAP1 PUSH2 0x453 JUMP JUMPDEST PUSH1 0x40 MLOAD DUP1 SWAP2 SUB SWAP1 RETURN JUMPDEST PUSH1 0x0 PUSH2 0x149 PUSH2 0x2A7 JUMP JUMPDEST ISZERO PUSH2 0x1B6 JUMPI PUSH1 0x0 PUSH1 0x1 PUSH1 0x0 DUP5 PUSH1 0x4 DUP2 LT PUSH2 0x166 JUMPI PUSH2 0x165 PUSH2 0x46E JUMP JUMPDEST JUMPDEST ADD SLOAD PUSH2 0x172 SWAP2 SWAP1 PUSH2 0x4CC JUMP JUMPDEST SWAP1 POP DUP1 PUSH1 0x0 DUP5 PUSH1 0x4 DUP2 LT PUSH2 0x189 JUMPI PUSH2 0x188 PUSH2 0x46E JUMP JUMPDEST JUMPDEST ADD DUP2 SWAP1 SSTORE POP PUSH2 0x1AC PUSH1 0x0 DUP5 PUSH1 0x4 DUP2 LT PUSH2 0x1A5 JUMPI PUSH2 0x1A4 PUSH2 0x46E JUMP JUMPDEST JUMPDEST ADD SLOAD PUSH2 0x2EC JUMP JUMPDEST PUSH1 0x1 SWAP2 POP POP PUSH2 0x1BB JUMP JUMPDEST PUSH1 0x0 SWAP1 POP JUMPDEST SWAP2 SWAP1 POP JUMP JUMPDEST PUSH1 0x0 DUP2 PUSH1 0x4 DUP2 LT PUSH2 0x1D0 JUMPI PUSH1 0x0 DUP1 REVERT JUMPDEST ADD PUSH1 0x0 SWAP2 POP SWAP1 POP SLOAD DUP2 JUMP JUMPDEST PUSH1 0x0 DUP1 PUSH1 0x2 SWAP1 POP PUSH1 0x0 JUMPDEST PUSH1 0x3 DUP2 LT ISZERO PUSH2 0x29F JUMPI PUSH2 0x20C PUSH1 0x0 DUP3 PUSH1 0x4 DUP2 LT PUSH2 0x205 JUMPI PUSH2 0x204 PUSH2 0x46E JUMP JUMPDEST JUMPDEST ADD SLOAD PUSH2 0x2EC JUMP JUMPDEST PUSH2 0x236 PUSH1 0x0 PUSH1 0x1 DUP4 PUSH2 0x21E SWAP2 SWAP1 PUSH2 0x4CC JUMP JUMPDEST PUSH1 0x4 DUP2 LT PUSH2 0x22F JUMPI PUSH2 0x22E PUSH2 0x46E JUMP JUMPDEST JUMPDEST ADD SLOAD PUSH2 0x2EC JUMP JUMPDEST PUSH1 0x0 PUSH1 0x1 DUP3 PUSH2 0x245 SWAP2 SWAP1 PUSH2 0x4CC JUMP JUMPDEST PUSH1 0x4 DUP2 LT PUSH2 0x256 JUMPI PUSH2 0x255 PUSH2 0x46E JUMP JUMPDEST JUMPDEST ADD SLOAD PUSH1 0x0 DUP3 PUSH1 0x4 DUP2 LT PUSH2 0x26C JUMPI PUSH2 0x26B PUSH2 0x46E JUMP JUMPDEST JUMPDEST ADD SLOAD GT ISZERO PUSH2 0x27C JUMPI DUP1 SWAP2 POP PUSH2 0x28C JUMP JUMPDEST PUSH1 0x1 DUP2 PUSH2 0x289 SWAP2 SWAP1 PUSH2 0x4CC JUMP JUMPDEST SWAP2 POP JUMPDEST DUP1 DUP1 PUSH2 0x297 SWAP1 PUSH2 0x500 JUMP JUMPDEST SWAP2 POP POP PUSH2 0x1E5 JUMP JUMPDEST POP DUP1 SWAP2 POP POP SWAP1 JUMP JUMPDEST PUSH1 0x0 DUP1 TIMESTAMP SWAP1 POP PUSH2 0x2B6 DUP2 PUSH2 0x2EC JUMP JUMPDEST PUSH1 0x4 SLOAD TIMESTAMP GT DUP1 ISZERO PUSH2 0x2C8 JUMPI POP PUSH1 0x5 SLOAD TIMESTAMP LT JUMPDEST ISZERO PUSH2 0x2D7 JUMPI PUSH1 0x1 SWAP2 POP POP PUSH2 0x2DD JUMP JUMPDEST PUSH1 0x1 SWAP2 POP POP JUMPDEST SWAP1 JUMP JUMPDEST PUSH1 0x4 SLOAD DUP2 JUMP JUMPDEST PUSH1 0x5 SLOAD DUP2 JUMP JUMPDEST PUSH2 0x382 DUP2 PUSH1 0x40 MLOAD PUSH1 0x24 ADD PUSH2 0x300 SWAP2 SWAP1 PUSH2 0x453 JUMP JUMPDEST PUSH1 0x40 MLOAD PUSH1 0x20 DUP2 DUP4 SUB SUB DUP2 MSTORE SWAP1 PUSH1 0x40 MSTORE PUSH32 0xF82C50F100000000000000000000000000000000000000000000000000000000 PUSH28 0xFFFFFFFFFFFFFFFFFFFFFFFFFFFFFFFFFFFFFFFFFFFFFFFFFFFFFFFF NOT AND PUSH1 0x20 DUP3 ADD DUP1 MLOAD PUSH28 0xFFFFFFFFFFFFFFFFFFFFFFFFFFFFFFFFFFFFFFFFFFFFFFFFFFFFFFFF DUP4 DUP2 DUP4 AND OR DUP4 MSTORE POP POP POP POP PUSH2 0x385 JUMP JUMPDEST POP JUMP JUMPDEST PUSH1 0x0 PUSH11 0x636F6E736F6C652E6C6F67 SWAP1 POP PUSH1 0x0 DUP1 DUP4 MLOAD PUSH1 0x20 DUP6 ADD DUP5 GAS STATICCALL POP POP POP JUMP JUMPDEST PUSH1 0x0 DUP1 REVERT JUMPDEST PUSH1 0x0 DUP2 SWAP1 POP SWAP2 SWAP1 POP JUMP JUMPDEST PUSH2 0x3BE DUP2 PUSH2 0x3AB JUMP JUMPDEST DUP2 EQ PUSH2 0x3C9 JUMPI PUSH1 0x0 DUP1 REVERT JUMPDEST POP JUMP JUMPDEST PUSH1 0x0 DUP2 CALLDATALOAD SWAP1 POP PUSH2 0x3DB DUP2 PUSH2 0x3B5 JUMP JUMPDEST SWAP3 SWAP2 POP POP JUMP JUMPDEST PUSH1 0x0 PUSH1 0x20 DUP3 DUP5 SUB SLT ISZERO PUSH2 0x3F7 JUMPI PUSH2 0x3F6 PUSH2 0x3A6 JUMP JUMPDEST JUMPDEST PUSH1 0x0 PUSH2 0x405 DUP5 DUP3 DUP6 ADD PUSH2 0x3CC JUMP JUMPDEST SWAP2 POP POP SWAP3 SWAP2 POP POP JUMP JUMPDEST PUSH1 0x0 DUP2 ISZERO ISZERO SWAP1 POP SWAP2 SWAP1 POP JUMP JUMPDEST PUSH2 0x423 DUP2 PUSH2 0x40E JUMP JUMPDEST DUP3 MSTORE POP POP JUMP JUMPDEST PUSH1 0x0 PUSH1 0x20 DUP3 ADD SWAP1 POP PUSH2 0x43E PUSH1 0x0 DUP4 ADD DUP5 PUSH2 0x41A JUMP JUMPDEST SWAP3 SWAP2 POP POP JUMP JUMPDEST PUSH2 0x44D DUP2 PUSH2 0x3AB JUMP JUMPDEST DUP3 MSTORE POP POP JUMP JUMPDEST PUSH1 0x0 PUSH1 0x20 DUP3 ADD SWAP1 POP PUSH2 0x468 PUSH1 0x0 DUP4 ADD DUP5 PUSH2 0x444 JUMP JUMPDEST SWAP3 SWAP2 POP POP JUMP JUMPDEST PUSH32 0x4E487B7100000000000000000000000000000000000000000000000000000000 PUSH1 0x0 MSTORE PUSH1 0x32 PUSH1 0x4 MSTORE PUSH1 0x24 PUSH1 0x0 REVERT JUMPDEST PUSH32 0x4E487B7100000000000000000000000000000000000000000000000000000000 PUSH1 0x0 MSTORE PUSH1 0x11 PUSH1 0x4 MSTORE PUSH1 0x24 PUSH1 0x0 REVERT JUMPDEST PUSH1 0x0 PUSH2 0x4D7 DUP3 PUSH2 0x3AB JUMP JUMPDEST SWAP2 POP PUSH2 0x4E2 DUP4 PUSH2 0x3AB JUMP JUMPDEST SWAP3 POP DUP3 DUP3 ADD SWAP1 POP DUP1 DUP3 GT ISZERO PUSH2 0x4FA JUMPI PUSH2 0x4F9 PUSH2 0x49D JUMP JUMPDEST JUMPDEST SWAP3 SWAP2 POP POP JUMP JUMPDEST PUSH1 0x0 PUSH2 0x50B DUP3 PUSH2 0x3AB JUMP JUMPDEST SWAP2 POP PUSH32 0xFFFFFFFFFFFFFFFFFFFFFFFFFFFFFFFFFFFFFFFFFFFFFFFFFFFFFFFFFFFFFFFF DUP3 SUB PUSH2 0x53D JUMPI PUSH2 0x53C PUSH2 0x49D JUMP JUMPDEST JUMPDEST PUSH1 0x1 DUP3 ADD SWAP1 POP SWAP2 SWAP1 POP JUMP INVALID LOG2 PUSH5 0x6970667358 0x22 SLT KECCAK256 0xB8 PUSH21 0xF617009FAB55CFABF39D510D8E5B25B2620C646391 DUP2 SWAP6 0xBA 0xCE PUSH23 0xAE096FB864736F6C634300081200330000000000000000 "},"methodIdentifiers":{"canditateArray(uint256)":"3f4761a5","getWinner()":"8e7ea5b2","isTimeValid()":"fd2723fd","timeEnd()":"fda263e8","timeStart()":"fd74d294","vote(uint256)":"0121b93f"}}}}}