{
  "_format": "hh-sol-artifact-1",
  "contractName": "Voting",
  "sourceName": "contracts/voting.sol",
  "abi": [
    {
      "inputs": [],
      "stateMutability": "nonpayable",
      "type": "constructor"
    },
    {
      "anonymous": false,
      "inputs": [
        {
          "indexed": false,
          "internalType": "bool",
          "name": "validVote",
          "type": "bool"
        },
        {
          "indexed": false,
          "internalType": "address",
          "name": "sender",
          "type": "address"
        },
        {
          "indexed": false,
          "internalType": "uint256",
          "name": "candidateWinner",
          "type": "uint256"
        }
      ],
      "name": "Results",
      "type": "event"
    },
    {
      "anonymous": false,
      "inputs": [
        {
          "indexed": false,
          "internalType": "bool",
          "name": "validVote",
          "type": "bool"
        },
        {
          "indexed": false,
          "internalType": "address",
          "name": "sender",
          "type": "address"
        },
        {
          "indexed": false,
          "internalType": "uint256",
          "name": "candidateNum",
          "type": "uint256"
        }
      ],
      "name": "VoteValid",
      "type": "event"
    },
    {
      "inputs": [
        {
          "internalType": "uint256",
          "name": "",
          "type": "uint256"
        }
      ],
      "name": "canditateArray",
      "outputs": [
        {
          "internalType": "uint256",
          "name": "",
          "type": "uint256"
        }
      ],
      "stateMutability": "view",
      "type": "function"
    },
    {
      "inputs": [],
      "name": "getWinner",
      "outputs": [
        {
          "internalType": "uint256",
          "name": "",
          "type": "uint256"
        }
      ],
      "stateMutability": "view",
      "type": "function"
    },
    {
      "inputs": [],
      "name": "isTimeValid",
      "outputs": [
        {
          "internalType": "bool",
          "name": "",
          "type": "bool"
        }
      ],
      "stateMutability": "view",
      "type": "function"
    },
    {
      "inputs": [],
      "name": "timeEnd",
      "outputs": [
        {
          "internalType": "uint256",
          "name": "",
          "type": "uint256"
        }
      ],
      "stateMutability": "view",
      "type": "function"
    },
    {
      "inputs": [],
      "name": "timeStart",
      "outputs": [
        {
          "internalType": "uint256",
          "name": "",
          "type": "uint256"
        }
      ],
      "stateMutability": "view",
      "type": "function"
    },
    {
      "inputs": [
        {
          "internalType": "uint256",
          "name": "candidateNum",
          "type": "uint256"
        }
      ],
      "name": "vote",
      "outputs": [
        {
          "internalType": "bool",
          "name": "",
          "type": "bool"
        }
      ],
      "stateMutability": "nonpayable",
      "type": "function"
    }
  ],
  "bytecode": "0x60806040526040518060800160405280600060ff168152602001600060ff168152602001600060ff168152602001600060ff16815250600090600461004592919061006e565b5034801561005257600080fd5b506364a85efc600481905550636480dae46005819055506100d0565b82600481019282156100a2579160200282015b828111156100a1578251829060ff16905591602001919060010190610081565b5b5090506100af91906100b3565b5090565b5b808211156100cc5760008160009055506001016100b4565b5090565b61057e806100df6000396000f3fe608060405234801561001057600080fd5b50600436106100625760003560e01c80630121b93f146100675780633f4761a5146100975780638e7ea5b2146100c7578063fd2723fd146100e5578063fd74d29414610103578063fda263e814610121575b600080fd5b610081600480360381019061007c91906103e1565b61013f565b60405161008e9190610429565b60405180910390f35b6100b160048036038101906100ac91906103e1565b6101c0565b6040516100be9190610453565b60405180910390f35b6100cf6101db565b6040516100dc9190610453565b60405180910390f35b6100ed6102a7565b6040516100fa9190610429565b60405180910390f35b61010b6102e0565b6040516101189190610453565b60405180910390f35b6101296102e6565b6040516101369190610453565b60405180910390f35b60006101496102a7565b156101b65760006001600084600481106101665761016561046e565b5b015461017291906104cc565b905080600084600481106101895761018861046e565b5b01819055506101ac600084600481106101a5576101a461046e565b5b01546102ec565b60019150506101bb565b600090505b919050565b600081600481106101d057600080fd5b016000915090505481565b6000806002905060005b600381101561029f5761020c600082600481106102055761020461046e565b5b01546102ec565b610236600060018361021e91906104cc565b6004811061022f5761022e61046e565b5b01546102ec565b600060018261024591906104cc565b600481106102565761025561046e565b5b01546000826004811061026c5761026b61046e565b5b0154111561027c5780915061028c565b60018161028991906104cc565b91505b808061029790610500565b9150506101e5565b508091505090565b6000804290506102b6816102ec565b600454421180156102c8575060055442105b156102d75760019150506102dd565b60019150505b90565b60045481565b60055481565b610382816040516024016103009190610453565b6040516020818303038152906040527ff82c50f1000000000000000000000000000000000000000000000000000000007bffffffffffffffffffffffffffffffffffffffffffffffffffffffff19166020820180517bffffffffffffffffffffffffffffffffffffffffffffffffffffffff8381831617835250505050610385565b50565b60006a636f6e736f6c652e6c6f679050600080835160208501845afa505050565b600080fd5b6000819050919050565b6103be816103ab565b81146103c957600080fd5b50565b6000813590506103db816103b5565b92915050565b6000602082840312156103f7576103f66103a6565b5b6000610405848285016103cc565b91505092915050565b60008115159050919050565b6104238161040e565b82525050565b600060208201905061043e600083018461041a565b92915050565b61044d816103ab565b82525050565b60006020820190506104686000830184610444565b92915050565b7f4e487b7100000000000000000000000000000000000000000000000000000000600052603260045260246000fd5b7f4e487b7100000000000000000000000000000000000000000000000000000000600052601160045260246000fd5b60006104d7826103ab565b91506104e2836103ab565b92508282019050808211156104fa576104f961049d565b5b92915050565b600061050b826103ab565b91507fffffffffffffffffffffffffffffffffffffffffffffffffffffffffffffffff820361053d5761053c61049d565b5b60018201905091905056fea2646970667358221220b874f617009fab55cfabf39d510d8e5b25b2620c6463918195bace76ae096fb864736f6c63430008120033",
  "linkReferences": {},
  "deployedLinkReferences": {}
}